:020000040000FA
:100000000C945D000C9485000C9485000C94850084
:100010000C9485000C9485000C9485000C9485004C
:100020000C9485000C9485000C9485000C9485003C
:100030000C9485000C9485000C9485000C9485002C
:100040000C945B020C9485000C94CB020C94A502DA
:100050000C9485000C9485000C9485000C9485000C
:100060000C9485000C9485000000000024002700FB
:100070002A0000000000250028002B0004040404CE
:100080000404040402020202020203030303030342
:10009000010204081020408001020408102001021F
:1000A00004081020000000080002010000030407FB
:1000B0000000000000000000F20411241FBECFEF7A
:1000C000D8E0DEBFCDBF11E0A0E0B1E0EEE0FFE0A0
:1000D00002C005900D92A631B107D9F721E0A6E143
:1000E000B1E001C01D92A03CB207E1F710E0CDE500
:1000F000D0E004C02197FE010E947F07CC35D107D4
:10010000C9F70E94FD020C9485070C940000E3EBF4
:10011000F0E02491EFE9F0E09491EBE8F0E0E49175
:10012000EE23C9F0222339F0233001F1A8F4213065
:1001300019F1223029F1F0E0EE0FFF1FEE58FF4FCA
:10014000A591B4912FB7F894EC91811126C09095A8
:100150009E239C932FBF08952730A9F02830C9F023
:10016000243049F7209180002F7D03C0209180002A
:100170002F7720938000DFCF24B52F7724BDDBCFEE
:1001800024B52F7DFBCF2091B0002F772093B000B6
:10019000D2CF2091B0002F7DF9CF9E2BDACFAF9236
:1001A000BF92CF92DF92EF92FF920F931F93CF9364
:1001B000DF936C017B018B01040F151FEB015E01C6
:1001C000AE18BF08C017D10759F06991D601ED915B
:1001D000FC910190F081E02DC6010995892B79F7FA
:1001E000C501DF91CF911F910F91FF90EF90DF90AC
:1001F000CF90BF90AF900895FC01538D448D252F73
:1002000030E0842F90E0821B930B541710F0CF96B0
:10021000089501970895FC01918D828D981761F0E2
:10022000A28DAE0FBF2FB11D5D968C91928D9F5FF9
:100230009F73928F90E008958FEF9FEF0895FC01D8
:10024000918D828D981731F0828DE80FF11D858D8B
:1002500090E008958FEF9FEF0895FC01918D228D1E
:10026000892F90E0805C9F4F821B91098F739927A3
:10027000089583E291E00E942D0121E0892B09F489
:1002800020E0822F089580E090E0892B29F00E94E1
:10029000390181110C9400000895FC01A48DA80F70
:1002A000B92FB11DA35ABF4F2C91848D90E00196B8
:1002B0008F739927848FA689B7892C93A089B189D8
:1002C0008C91837080648C93938D848D981306C079
:1002D0000288F389E02D80818F7D80830895EF92DD
:1002E000FF920F931F93CF93DF93EC0181E0888FF0
:1002F0009B8D8C8D98131AC0E889F989808185FFC0
:1003000015C09FB7F894EE89FF896083E889F98961
:1003100080818370806480839FBF81E090E0DF9163
:10032000CF911F910F91FF90EF900895F62E0B8DB6
:1003300010E00F5F1F4F0F731127E02E8C8D8E1171
:100340000CC00FB607FCFACFE889F989808185FFD8
:10035000F5CFCE010E944D01F1CFEB8DEC0FFD2FBB
:10036000F11DE35AFF4FF0829FB7F8940B8FEA8993
:10037000FB8980818062CFCFCF93DF93EC01888DA2
:100380008823B9F0AA89BB89E889F9898C9185FD10
:1003900003C0808186FD0DC00FB607FCF7CF8C919E
:1003A00085FFF2CF808185FFEDCFCE010E944D0108
:1003B000E9CFDF91CF910895CF93DF9390E0FC01D7
:1003C000E057FF4F249184589F4FFC01849188236C
:1003D000D1F090E0880F991FFC01E859FF4FA591DB
:1003E000B491FC01EE58FF4FC591D49161110EC03C
:1003F0009FB7F8948C91E22FE0958E238C932881FF
:10040000E223E8839FBFDF91CF9108958FB7F894DF
:10041000EC91E22BEC938FBFF6CF8F929F92AF922D
:10042000BF920F931F93CF93DF93CDB7DEB7A19702
:100430000FB6F894DEBF0FBECDBF19A2423008F44C
:100440004AE08E010F5D1F4F842E912CB12CA12C00
:10045000A50194010E945D07E62FB901CA01EA30A7
:1004600044F5E05DD801EE938D01232B242B252B41
:1004700079F790E080E0109769F0FD01019000208D
:10048000E9F73197AF014A1B5B0BBD0183E291E0B5
:100490000E94CF00A1960FB6F894DEBF0FBECDBF6D
:1004A000DF91CF911F910F91BF90AF909F908F9050
:1004B0000895E95CD7CF1F920F920FB60F921124C7
:1004C0002F933F938F939F93AF93BF9380911F017F
:1004D00090912001A0912101B091220130911E0143
:1004E00023E0230F2D3758F50196A11DB11D209350
:1004F0001E0180931F0190932001A0932101B093CE
:10050000220180911A0190911B01A0911C01B091D0
:100510001D010196A11DB11D80931A0190931B012D
:10052000A0931C01B0931D01BF91AF919F918F913A
:100530003F912F910F900FBE0F901F90189526E8B6
:10054000230F0296A11DB11DD2CF1F920F920FB69D
:100550000F9211242F933F934F935F936F937F9349
:100560008F939F93AF93BF93EF93FF9383E291E0B9
:100570000E944D01FF91EF91BF91AF919F918F919B
:100580007F916F915F914F913F912F910F900FBE8F
:100590000F901F9018951F920F920FB60F92112473
:1005A0002F938F939F93EF93FF93E0913301F091FB
:1005B00034018081E0913901F0913A0182FD1BC044
:1005C000908180913C018F5F8F7320913D01821754
:1005D00041F0E0913C01F0E0ED5DFE4F958F80939E
:1005E0003C01FF91EF919F918F912F910F900FBE42
:1005F0000F901F9018958081F4CFCF93DF9300D098
:1006000000D000D0CDB7DEB7789484B5826084BDC9
:1006100084B5816084BD85B5826085BD85B5816006
:1006200085BD80916E00816080936E001092810084
:10063000809181008260809381008091810081603F
:100640008093810080918000816080938000809100
:10065000B10084608093B1008091B000816080938C
:10066000B00080917A00846080937A0080917A0053
:10067000826080937A0080917A00816080937A0012
:1006800080917A00806880937A001092C10060E0C7
:100690008EE00E94DC0161E08FE00E94DC01E091CD
:1006A0003301F091340182E08083E0912F01F091D9
:1006B00030011082E0913101F091320180E18083BC
:1006C00010923B01E0913701F091380186E0808380
:1006D000E0913501F0913601808180618083E09165
:1006E0003501F0913601808188608083E091350189
:1006F000F0913601808180688083E0913501F0912E
:10070000360180818F7D808310921701109216012F
:1007100084EB282E312C00E010E080E480937C00F4
:1007200080917A00806480937A0080917A0086FDBF
:10073000FCCF60917800E0907900FE2CE62EF092DC
:100740001901E0921801B1016E197F09072E000C02
:10075000880B990B0E943B064B015C0120E030E0C6
:1007600040EA50E40E948C0587FDE2C020E030E0C2
:1007700040EA50ECC501B4010E94EB0618160CF0DB
:10078000D7C0E0911601F0911701FE83ED83B70108
:10079000FF0C880B990B0E943B069B01AC0160E0AB
:1007A00070E084E393E40E941F056B017C01ED81FE
:1007B000FE81C486D586E686F786248935894689F2
:1007C00057890E9420054B015C01ED81FE81848ADE
:1007D000958AA68AB78A2089318942895389C701B7
:1007E000B6010E941F05ED81FE812085318542857D
:1007F00053850E94F006ED81FE8124A135A146A11A
:1008000057A10E94910569837A838B839C83ED8134
:10081000FE812081318142815381C701B6010E944E
:10082000F0062B013C01ED81FE812481358146815A
:100830005781C501B4010E94F0069B01AC01C301C0
:10084000B2010E9420059B01AC0169817A818B81F4
:100850009C810E9420054B015C01ED81FE81C08AD4
:10086000D18AE28AF38A20E030E0A90160A171A177
:1008700082A193A10E948C05882321F1ED81FE8144
:10088000C08CD18CE28CF38C9601A701B401C50118
:100890000E94EB0618160CF457C0ED81FE81D48C33
:1008A000E58CF68CF78DF9832D2D3E2D4F2D5F2F86
:1008B000B401C5010E948C0587FF04C08D2C9E2CBD
:1008C000AF2CB980B401C5010E9403066B017A8385
:1008D000698361E08FE00E94DC0189819A81892B24
:1008E000B1F580E00E948700C0901801D0901901F6
:1008F0000D2C000CEE08FF084AE0C701B601F7FE18
:100900000DC06DE283E291E00E946F0166277727B8
:10091000CB016C197D098E099F094AE00E940D02E6
:1009200042E050E062E171E083E291E00E94CF009A
:100930000115110509F4F1CE0E943901882309F44B
:10094000ECCE0E940000E9CE46015701BBCFE98101
:10095000FA81EF3FF10511F481E0C4CFE3EBF0E061
:100960008491833029F150F48130C1F08230D9F084
:1009700089819A81803891057CF7B3CF873011F156
:10098000883041F18430A1F78091800080628093AB
:100990008000D0928B00C0928A00A6CF84B5806878
:1009A00084BDC7BCA1CF84B5806284BDC8BC9CCFC8
:1009B00080918000806880938000D0928900C092EE
:1009C000880092CF8091B00080688093B000C09280
:1009D000B3008ACF8091B00080628093B000C09253
:1009E000B40082CFE3E2F1E01382128288EE93E05A
:1009F000A0E0B0E084839583A683B78384E091E090
:100A00009183808385EC90E09587848784EC90E0E7
:100A10009787868780EC90E0918B808B81EC90E0CB
:100A2000938B828B82EC90E0958B848B86EC90E0AC
:100A3000978B868B118E128E138E148E08955058BC
:100A4000BB27AA270E9437050C94B1060E94A30673
:100A500038F00E94AA0620F039F49F3F19F426F4DA
:100A60000C94A0060EF4E095E7FB0C949A06E92F8F
:100A70000E94C20658F3BA176207730784079507E6
:100A800020F079F4A6F50C94E4060EF4E0950B2E14
:100A9000BA2FA02D0B01B90190010C01CA01A001D0
:100AA0001124FF27591B99F0593F50F4503E68F12B
:100AB0001A16F040A22F232F342F4427585FF3CF6C
:100AC000469537952795A795F0405395C9F77EF43D
:100AD0001F16BA0B620B730B840BBAF09150A1F086
:100AE000FF0FBB1F661F771F881FC2F70EC0BA0F0C
:100AF000621F731F841F48F4879577956795B79594
:100B0000F7959E3F08F0B0CF9395880F08F099278E
:100B1000EE0F9795879508950E94760608F481E078
:100B200008950E94A5050C94B1060E94AA0658F0EB
:100B30000E94A30640F029F45F3F29F00C949A0626
:100B400051110C94E5060C94A0060E94C20668F3AD
:100B50009923B1F3552391F3951B550BBB27AA2776
:100B600062177307840738F09F5F5F4F220F331FB0
:100B7000441FAA1FA9F335D00E2E3AF0E0E832D078
:100B800091505040E695001CCAF72BD0FE2F29D07B
:100B9000660F771F881FBB1F261737074807AB074D
:100BA000B0E809F0BB0B802DBF01FF2793585F4FC2
:100BB0003AF09E3F510578F00C949A060C94E506A5
:100BC0005F3FE4F3983ED4F3869577956795B795A4
:100BD000F7959F5FC9F7880F911D9695879597F9AF
:100BE0000895E1E0660F771F881FBB1F6217730728
:100BF0008407BA0720F0621B730B840BBA0BEE1F3D
:100C000088F7E09508950E940A066894B1110C9443
:100C1000E50608950E94CA0688F09F5798F0B92FFC
:100C20009927B751B0F0E1F0660F771F881F991F21
:100C30001AF0BA95C9F714C0B13091F00E94E406D9
:100C4000B1E008950C94E406672F782F8827B85FE9
:100C500039F0B93FCCF3869577956795B395D9F779
:100C60003EF490958095709561957F4F8F4F9F4F83
:100C70000895E89409C097FB3EF49095809570958F
:100C800061957F4F8F4F9F4F9923A9F0F92F96E9D8
:100C9000BB279395F695879577956795B795F1114D
:100CA000F8CFFAF4BB0F11F460FF1BC06F5F7F4FEA
:100CB0008F4F9F4F16C0882311F096E911C07723FC
:100CC00021F09EE8872F762F05C0662371F096E805
:100CD000862F70E060E02AF09A95660F771F881FD4
:100CE000DAF7880F9695879597F90895990F000878
:100CF000550FAA0BE0E8FEEF16161706E807F907EE
:100D0000C0F012161306E407F50798F0621B730B88
:100D1000840B950B39F40A2661F0232B242B252B09
:100D200021F408950A2609F4A140A6958FEF811DAC
:100D3000811D089597F99F6780E870E060E008954D
:100D40009FEF80EC089500240A94161617061806E3
:100D50000906089500240A941216130614060506BF
:100D60000895092E0394000C11F4882352F0BB0F50
:100D700040F4BF2B11F460FF04C06F5F7F4F8F4FB3
:100D80009F4F089557FD9058440F551F59F05F3FEE
:100D900071F04795880F97FB991F61F09F3F79F09D
:100DA00087950895121613061406551FF2CF46951F
:100DB000F1DF08C0161617061806991FF1CF8695A1
:100DC0007105610508940895E894BB276627772785
:100DD000CB0197F908950E94760608F48FEF0895E5
:100DE0000E9403070C94B1060E94A30638F00E94EB
:100DF000AA0620F0952311F00C949A060C94A006F4
:100E000011240C94E5060E94C20670F3959FC1F36D
:100E1000950F50E0551F629FF001729FBB27F00DA8
:100E2000B11D639FAA27F00DB11DAA1F649F6627FD
:100E3000B00DA11D661F829F2227B00DA11D621F4C
:100E4000739FB00DA11D621F839FA00D611D221F06
:100E5000749F3327A00D611D231F849F600D211DEA
:100E6000822F762F6A2F11249F5750409AF0F1F06D
:100E700088234AF0EE0FFF1FBB1F661F771F881FD6
:100E800091505040A9F79E3F510580F00C949A066E
:100E90000C94E5065F3FE4F3983ED4F3869577958E
:100EA0006795B795F795E7959F5FC1F7FE2B880F7C
:100EB000911D9695879597F90895A1E21A2EAA1B80
:100EC000BB1BFD010DC0AA1FBB1FEE1FFF1FA217FA
:100ED000B307E407F50720F0A21BB30BE40BF50BF7
:100EE000661F771F881F991F1A9469F76095709580
:100EF000809590959B01AC01BD01CF010895EE0F47
:100F0000FF1F0590F491E02D0994F894FFCF0000A5
:100F100000006F01CF00FC00BC012D010B011F017F
:040F20000D0A0000B6
:107E0000112484B714BE81FFF0D085E080938100F7
:107E100082E08093C00088E18093C10086E0809377
:107E2000C20080E18093C4008EE0C9D0259A86E02C
:107E300020E33CEF91E0309385002093840096BBD3
:107E4000B09BFECF1D9AA8958150A9F7CC24DD24C4
:107E500088248394B5E0AB2EA1E19A2EF3E0BF2EE7
:107E6000A2D0813461F49FD0082FAFD0023811F036
:107E7000013811F484E001C083E08DD089C08234E0
:107E800011F484E103C0853419F485E0A6D080C0E4
:107E9000853579F488D0E82EFF2485D0082F10E0AE
:107EA000102F00270E291F29000F111F8ED06801E7
:107EB0006FC0863521F484E090D080E0DECF843638
:107EC00009F040C070D06FD0082F6DD080E0C81688
:107ED00080E7D80618F4F601B7BEE895C0E0D1E017
:107EE00062D089930C17E1F7F0E0CF16F0E7DF06D8
:107EF00018F0F601B7BEE89568D007B600FCFDCFD4
:107F0000A601A0E0B1E02C9130E011968C91119780
:107F100090E0982F8827822B932B1296FA010C0160
:107F200087BEE89511244E5F5F4FF1E0A038BF0790
:107F300051F7F601A7BEE89507B600FCFDCF97BE46
:107F4000E89526C08437B1F42ED02DD0F82E2BD052
:107F50003CD0F601EF2C8F010F5F1F4F84911BD097
:107F6000EA94F801C1F70894C11CD11CFA94CF0C13
:107F7000D11C0EC0853739F428D08EE10CD085E9AC
:107F80000AD08FE07ACF813511F488E018D01DD067
:107F900080E101D065CF982F8091C00085FFFCCF94
:107FA0009093C60008958091C00087FFFCCF809118
:107FB000C00084FD01C0A8958091C6000895E0E648
:107FC000F0E098E1908380830895EDDF803219F02E
:107FD00088E0F5DFFFCF84E1DECF1F93182FE3DFCA
:107FE0001150E9F7F2DF1F91089580E0E8DFEE27F6
:047FF000FF270994CA
:027FFE00040479
:00000001FF
