:02000000807E00
:10002300A999C298EA6440600BEB6410600F0BE976
:1000330012080D327A00743612080080EC7B000A35
:10004300EA75F020846013800280E3EA2480942020
:10005300120800748812080080EFEA248012080056
:07006300748012080080E226
:1000800079007A007B0012081A12084D7480120859
:10009000007432120863748012080074321208630C
:0300A0000080FDE0
:10080000C2A3C2A4C2A5F580D2A5C2A522D2A3C20A
:10081000A4C2A5F580D2A5C2A52274341208007422
:100820003212086374301208007432120863740CB8
:100830001208007432120863740112080074321234
:0D0840000863743612080074321208632237
:10084D00438920759850758780758DFF758BFFD204
:06085D00ACD2AFD28E22E6
:0C08630078DD7D64DDFED8FA1470F5220B
:00000001FF
