:0413AB0025660A00A9
:10135E00438920758DFD758BFDD28EC29FD29ED294
:06136E00ACD2AFD29922BF
:10131F0012135E1213A51211D38F288E278D268CD0
:10132F00257BFF7A1379AB120DC67FE87E0312136C
:03133F009280E3B6
:0B139200EF1FAC0670011E4C70F6222D
:10137400C2B77F4B7E00121392D2B77F027E000267
:021384001392C2
:10124400E4FD30B714EDC3941474809480500A0DF7
:101254007F017E0012139280E9EDC394147480948C
:101264008040037F0122E4FD20B714EDC39414747D
:10127400809480500A0D7F017E0012139280E9C38E
:0E128400ED94147480948040037F01227F005B
:011292002239
:10134200E4FDC2B70000D2B7000030B7030D80023F
:0B135200E4FD7F057E00121392AF0542
:01135D00226D
:1012FB00E4FBFAFFEBC39408748094805013121331
:10130B0042EFC43333335480FEEAC3134EFA0B80DF
:03131B00E3AF023B
:01131E0022AC
:081293001213741212447FCC07
:02129B00AD079D
:10129D00E4FBEBC3940874809480502AED5401FA5A
:1012AD00EDC313FDEA600FC2B70000D2B77F067E13
:1012BD0000121392800DC2B77F067E00121392D2D8
:0612CD00B700000B80CC0D
:0112D30022F8
:08139D001212937F4402129B1F
:0613A50012137402124451
:1011D300E4FFF9F526F52712139D1212937FBE1231
:1011E300129B1212FBA9071212FBEFFE7C00E429EB
:1011F300F527EC3EF52654F8FEEEB4F821E527F486
:10120300FFE526F4FEEF2401F527E43EF526FCADC9
:1012130027E412090BE4FBFA798078BD800FAC2632
:10122300AD27E412090BE4FBFA7980783D1208003C
:101233008F258E248D238C22AF25AE24AD23AC22A3
:011243002288
:10080000EC4D6011E8497017ED33EC3304600DE4F2
:10081000FCFFFEFD22E933E8330470F80209791287
:10082000094458046009E4CC248150062850090288
:100830000983284003020980C0E0EB4A7044B98074
:1008400006D0E0FB02096FEF4E701CBD8008EBFF85
:10085000EAFEE9FD80EBE98DF0A4FEE5F00208E98F
:10086000E9CDF9EAFEEBFFEF89F0A4FCE5F0CE89D3
:10087000F0A42EFFE435F0CD89F0A42DFEE435F090
:100880008067EF4E7005BD80D780C3EF8BF0A4ACBE
:10089000F0EE8BF0A42CFCE435F0F8EF8AF0A42CF9
:1008A000E5F038FCE433CB8DF0A42CFCE5F03BF80C
:1008B000EE8AF0A42CFCE5F038F8E433CF89F0A4FC
:1008C0002CFCE5F038CF3400CE89F0A42FFFE5F002
:1008D0003EFEE433C98DF0A42EFEE5F039CD8AF05A
:1008E000A42FFFE5F03EFEE43DFD33D0E0FB5007D2
:1008F0000BBB000F020983EC2CFCEF33FFEE33FE41
:06090000ED33FD02095B6E
:1009060075F020800E75F010800575F0087D007E6C
:10091600007F003392D530D503120D20EC33401002
:10092600EF33FFEE33FEED33FDEC33FCD5F0ED2275
:0E093600E5F0247EA2D513CC92E7CDCEFF22B1
:100D6400E5392425F8E6053922782230070278256A
:100D7400E475F001120D2E020CC82000EB7F2ED278
:100D8400008018EF540F2490D43440D4FF30040B67
:100D9400EF24BFB41A0050032461FFE53A60021542
:100DA4003A053DE53D7002053C30070D7822E475B7
:100DB400F001120D2EEF020D0E0212D47403D207AD
:100DC4008003E4C207F5398B228A238924E4F53AA7
:100DD400F53CF53DE53A60077F20120D9F80F575DF
:100DE4003BFFC201C200C202C203C205C206C2085E
:100DF400120D6DFF700D3007057F00120DB0AF3D71
:100E0400AE3C22B4255FC2D5C204120D6DFF24D0BE
:100E1400B40A00501A75F00A783A30D50508B6FFBE
:100E24000106C6A426F620D5047002D20380D92474
:100E3400CFB41A00EF5004C2E5D20402109DD201CF
:100E440080C6D20080C0D20280BCD2D580BAD2057E
:100E540080B47F20120D9F2002077401B53A004030
:100E6400F1120D64FF120D9F020DD8D208D2068034
:100E740095120D64FB120D64FA120D64F94A4B705D
:100E84000679947A117BFF20022EE53A602A7E00CF
:100E94008E82758300120CE160060EEE653B70F0E5
:100EA400C2D5EBC0E0EAC0E0E9C0E0EE1210FDD02C
:100EB400E0F9D0E0FAD0E0FB120CC8FF60AAEBC066
:100EC400E0EAC0E0E9C0E0120D9FD0E02401F9D0CF
:100ED400E03400FAD0E0FBE53B0460DCD53BD9808C
:100EE40087D20280A21210E060F7E53B7001041281
:100EF400098EA93B600DE53B600914F53B1211878F
:100F0400EF60F3EA30E702F404C3995077EAF4257A
:100F14003B0430E701E404F53B800D1210E060C1AE
:100F2400EA053B253B12098EEA7838F630E701E4FE
:100F3400253B04D53B04200501141210FDE4C0E058
:100F44001211877838E6601320E70714F6120D872C
:100F5400802204F6D0E014C0E07F00120D87E53B48
:100F64006007120D7E153B800B300503120D7ED0F9
:100F7400E0020DD8D0E00480C51210E060A0E53B8B
:100F84000412098E7838EAF6E53B20050260010474
:050F940024041210FD11
:100F990074FF04C0E0121187120D87E53B2005029A
:100FA9006003120D7ED0E0B53BE87F45120D9178C4
:100FB90038E67F2B30E7047F2DF404C0E0120D9F43
:100FC900D0E075F00A84C0F0120D88D0E0120D88C7
:100FD900020DD8791080027908C206C2088008D2A9
:100FE900D5790A8004790AC2D5E53B047002F53B3C
:100FF900E4FAFDFEFF120D64FC7B08200113120DBB
:1010090064FD7B1030000A120D64FE120D64FF7B33
:1010190020EC3382D592D55013C3E43000069FFFEC
:10102900E49EFEE42001039DFDE49CFCE4CBF8C2B0
:1010390001EC700CCFCECDCCE824F8F870F3801712
:10104900C3EF33FFEE33FEED33FDEC33FCEB33FB43
:10105900994002FB0FD8E9EB300105F8D0E0C4480C
:10106900B201C0E00AEC4D4E4F78207B0070C2EA15
:10107900B53B0040BCC0E01210FFD0F0D0E0200129
:1010890004C4C0E0C4B201C0F0120D88D0F0D5F09C
:10109900EB020DD8120D3E0E75530FDC580E464C5F
:1010A9000E42420FE04F0FE8440FE8490E5B430F31
:1010B900EE550F1F460F7D450EE94711B4500E4AF4
:1010C9002D0E4E2E0E712B0E52230E6F20119D2ABE
:1010D9000E0A4800000E69E53BB4FF03753B061292
:1010E9000D64FC120D64FD120D64FE120D64FF788F
:1010F900310209BD790AA2D5200314300509B910B6
:10110900020404B9080104A2D520060250010420F2
:1011190002689202B53A005034C0E07F20300319CA
:101129007F30A20272067205500F121156C202C216
:1011390006C205C2087F30800F300503E9C0E012FE
:101149000D9F300503D0E0F9D0E0B53ACC30051752
:101159007F30B9100C120D9F7F583004077F7880BB
:1011690003B90803120D9F3002057F2D020D9F7FE1
:10117900202008F87F2B2006F322920280CF7F00DF
:10118900B4070050052431F8E6FF22286E756C6C0F
:101199002900D201120D643001F8C201783A30D524
:1011A9000108F6020E0A2D50434958120D64240312
:1011B900B405004001E49011AF93120D90743A12F6
:0A11C9000D90D203753A04020FDC0A
:10094400E9D2E7C933E833F892D5EDD2E7CD33ECF9
:0709540033FC5002B2D52272
:10095B00EC30E7100FBF000C0EBE00080DBD0004FD
:10096B000BEB6014A2D5EB13FCED92E7FD2274FFA9
:10097B00FCFDFEFF22E480F8A2D574FF13FC7D8002
:03098B00E480EF16
:10098E00F920E72824F950037907E4F42402FB1830
:10099E00DBFDE624FB5014E9600DE4F618E604F6E0
:0F09AE00B40A08E4F6D9F57401F60A22C2D5227C
:1009BD00ED33EC3392D5FA602AB4FF33EDC2E77B09
:1009CD00FF60067A0979E2E4227A0979EB20D504F1
:1009DD007A0979E6224E614E002B494E46002D498B
:1009ED004E4600E47A08F608DAFC7B00740722E82C
:1009FD00C0E0ECC0E0EDC0E0EEC0E0EFC0E0EA75B5
:100A0D00F010A4CAABF075F04DA42BFBE435F0FC4F
:100A1D00EA2410FAEB34C5FBEC34D9FCEDC2E7FF48
:100A2D0075F056A4F42411C5F0F434C58FF0A42A42
:100A3D00E5F03BE43CF620E714120C88D0E0FFD043
:100A4D00E0FED0E0FDD0E0FC120BBB8014F40412EC
:100A5D000C88D0E0FFD0E0FED0E0FDD0E0FC120825
:100A6D0000D0E0F8E6FAEDD2E7CD33EC332482FB8B
:100A7D00E4C3CF33CFCE33CECD33CD33DBF37B07D2
:100A8D0075F00A846004F6081B0AE5F0F6088FF08D
:100A9D00740AA4FFACF08EF0740AA42CFEACF050D6
:100AAD00010C8DF0740AA42CFDE435F0F608DBDEA4
:030ABD0074072299
:100AC000020979E86480F8E933E83360110460F0E2
:100AD000ED33EC337009E8FCE9FDEAFEEBFF22049C
:100AE00060DED3EB9FEA9EE99DE8C2E78CF0C2F797
:100AF00095F0400CE8CCF8E9CDF9EACEFAEBCFFB63
:100B000012094485D0F05804700320D5B3E804706E
:100B1000075002B2D502098392D5EC0460F7E4CC09
:100B2000C0E0C398F8603B94186008400DD0E0FB2B
:100B300002095BE4FBFAC9FC8028E830E406E4C95A
:100B4000FBE4CAFCE830E305E4C9CACBFCE854077F
:100B50006010F8C3E913F9EA13FAEB13FBEC13FC8A
:100B6000D8F130F52FC3E49CFCEF9BFFEE9AFEED2D
:100B700099FDD0E0FBEF4E4D4C701222DB030209D1
:100B800080EC2CFCEF33FFEE33FEED33FDED30E770
:100B9000EB02095BEF2BFFEE3AFEED39FDD0E0FBF7
:100BA00050130BBB0003020983ED13FDEE13FEEFA0
:080BB00013FFEC13FC02095BCA
:100BB800020983EC5D046005E859047003020979B1
:100BC800120944580460F6EC4860F2EC7004FDFE2B
:100BD800FF22C860DB2481C85009C3986002500610
:100BE8000209809850CAF582E9294B4A7005AB8200
:100BF80002096F75F0007C1A7880C3EF9BEE9AEDBE
:100C080099400DC3EF9BFFEE9AFEED99FDE842F087
:100C1800DC23ACF0D0E0FFD0E0FED0E0FDAB8220DA
:100C2800E7101BEB60BAEC2CFCEF33FFEE33FEED64
:100C380033FD02095BE803F830E705C0F075F00002
:100C4800EF2FFFEE33FEED33FD40B830E7C280AA48
:100C58003F8000004120000042C80000447A0000A4
:100C6800461C400047C35000497424004B18968026
:100C78004CBEBC205A0E1BCA6753C21C749DC5AE1D
:100C8800FB60065407601C2323120CB6EB54386033
:100C980009120CA2120CB1120800ECF8EDF9EEFAE8
:100CA800EFCB22EB120CB180F1543803241C900CCA
:100CB80058FE93FC0EEE93FD0EEE930ECE93FF229C
:0300000002138662
:0C138600787FE4F6D8FD75813D02131F4E
:100CC800BB010689828A83E0225002E722BBFE022A
:090CD800E32289828A83E493225D
:100CE100BB010CE58229F582E5833AF583E02250C8
:100CF10006E92582F8E622BBFE06E92582F8E22212
:0D0D0100E58229F582E5833AF583E493222B
:100D0E00BB010689828A83F0225002F722BBFE01C4
:020D1E00F322BE
:0E0D2000C3E49FFFE49EFEE49DFDE49CFC22E4
:100D2E00FAE6FB0808E6F925F0F618E6CA3AF622C6
:100D3E00D083D082F8E4937012740193700DA3A344
:100D4E0093F8740193F5828883E473740293686058
:060D5E00EFA3A3A380DF58
:1012D400EFB40A07740D1212DF740A309811A8993A
:1012E400B8130CC2983098FDA899C298B811F6307A
:0712F40099FDC299F5992252
:00000001FF
