:060BCA00011F00011E00E6
:070BC300AE071FEE70FA22DD
:070AFE007F30120B9F7F0502
:100B0500EFD394007480948040127E6EEED39400EF
:0C0B15007480948040031E80F31F80E475
:010B210022B1
:0D0B9F00C2A3C2A4C2A58F80D2A5C2A52208
:0D0BAC00D2A3C2A4C2A58F80D2A5C2A522EB
:100B7500120AFE120AFE7F0C120B007F01120B9F58
:050B85007F05020B05D5
:100AD200EFFB7A0070047F80801CEB64014A700493
:100AE2007F908012EB64024A70047F888008EB6476
:0C0AF200034A70027F98EF2DFF020B9F5B
:040B4500AB05A9074C
:100B49007F017E00E4FAEAC39B500AE9FD7C0012AA
:050B5900082D0A80F1E7
:010B5E002274
:040A94008A128B1324
:100A9800120AD2851415D3E5159400748094804009
:100AA80028E51514FD7F0A120B45AC12AD13CFCD06
:100AB800CFCECCCE12083F7C007D0A12083FED2431
:090AC80030FF120BAC151580CDB6
:010AD1002202
:0409C6008B828A8313
:1009CA00120AD2D3E5829400E58364809480400BB6
:1009DA007F2B120BAC85830E85820FC3E58364805F
:1009EA00948050107F2D120BACC3E49582F50FE46E
:1009FA009583F50E850C0DD3E50D940074809480D3
:100A0A004028E50D14FD7F0A120B45AC0EAD0FCF41
:100A1A00CDCFCECCCE1208947C007D0A120894ED7C
:0A0A2A002430FF120BAC150D80CD37
:010A3400229F
:060B22008B1B8A1C891DDB
:100B2800120AD2E4FEAB1BAA1CA91D8E8275830093
:0C0B3800120800FF6006120BAC0E80E9F2
:010B4400228E
:0A0BB900AC03120AD2AF04020BAC29
:050BD1007F01020BACE6
:060956008B168A178918B8
:10095C00E4F519F51AFEFD7F36120B9FEEC3944099
:10096C00748094805053EEC41354076006EE24E058
:10097C00FF8002AF06EF2480FF120B9FEEC41354CE
:10098C000760047F8880027F80120B9FE4FDEDC31B
:10099C00941074809480501EAB16AA17A918051ACF
:1009AC00E51A8519837002051914F582120800FFE7
:0909BC00120BAC0D80D80E80A3D3
:0109C500220F
:100B5F00438920759850758780758DFF758BFFD2EF
:060B6F00ACD2AFD28E22D1
:100B8A00120B75120B5F7F36120B9F7F80120B9F21
:050B9A00120B9F80FE1C
:03002300020A3599
:0B0A3500C0E0C0D075D000C006C007B4
:100A4000AE99C298E51F64407007F51F7F36120B00
:100A50009FE51E6410702DF51E051FE51FC413547D
:100A6000076007E51F24E0FF8002AF1FEF2480FF2F
:100A7000120B9FE51FC413540760047F8880027F18
:0B0A800080120B9F051EAF06120BAC8E
:090A8B00D007D006D0D0D0E03233
:030000000208CA29
:0C08CA00787FE4F6D8FD75811F0209114B
:10080000BB010CE58229F582E5833AF583E02250AD
:1008100006E92582F8E622BBFE06E92582F8E222F7
:0D082000E58229F582E5833AF583E4932211
:10082D00EF8DF0A4A8F0CF8CF0A428CE8DF0A42EDF
:02083D00FE2299
:10083F00BC000BBE0029EF8DF084FFADF022E4CC9D
:10084F00F875F008EF2FFFEE33FEEC33FCEE9DEC66
:10085F00984005FCEE9DFE0FD5F0E9E4CEFD22EDAC
:10086F00F8F5F0EE8420D21CFEADF075F008EF2FF6
:10087F00FFED33FD4007985006D5F0F222C398FDE7
:05088F000FD5F0EA2284
:10089400C2D5EC30E709B2D5E4C39DFDE49CFCEE7F
:1008A40030E715B2D5E4C39FFFE49EFE12083FC3B0
:1008B400E49DFDE49CFC800312083F30D507C3E4AB
:0608C4009FFFE49EFE22EE
:1008D600020B8AE493A3F8E493A34003F68001F2A3
:1008E60008DFF48029E493A3F85407240CC8C33323
:1008F600C4540F4420C8834004F456800146F6DFF2
:10090600E4800B0102040810204080900BCAE47EAC
:10091600019360BCA3FF543F30E509541FFEE493E6
:10092600A360010ECF54C025E060A840B8E493A3AD
:10093600FAE493A3F8E493A3C8C582C8CAC583CAD8
:10094600F0A3C8C582C8CAC583CADFE9DEE780BE90
:010BD0000024
:00000001FF
