:040E000025640A005B
:100B5C00E4F508120DAB7D0FE4FF120D757F0A7ED4
:100B6C0000120D57E4FF120D338F087BFF7A0E79BC
:100B7C000085080C1208627DFF7F01120D757F0A3B
:100B8C007E00120D577F01120D338F087BFF7A0EFA
:100B9C00790085080C1208627D0F7F02120D757F9B
:100BAC0002120D338F087BFF7A0E790085080C1228
:100BBC0008627F03120D338F087D0F7F04120D75B1
:100BCC007BFF7A0E790085080C1208627F04120DE7
:100BDC00338F087BFF7A0E790085080C120862802F
:010BEC00FE0A
:0D0D93007F017E00120DA0D2A17F017E0025
:0B0DA000EF1FAC0670011E4C70F62225
:100D5700D3EF9400EE940040147D6E7C00ED1D707F
:0D0D6700011CED4C70F7EF1F70E61E80E3DD
:010D7400225C
:0F0DD100D2A1D2A0120D9CC2A0120D9CC2A122D1
:100DC100D2A1C2A0120D9CD2A07F017E00020DA073
:0A0DEC00C2A1C2A0120D93C2A12201
:0A0DF600C2A1D2A0120D93C2A122E7
:0B0CDE00120CAD120CE9AF01120CADBE
:100CE900E4FDD2A17F01FE120DA030A0110DEDD3BC
:100CF90094647480948040F2120DC17F0122C2A1D4
:020D09007F0069
:010D0B0022C5
:020CAD00AD0791
:100CAF00E4FBFAC2A1ED5480D39400748094804089
:100CBF0004D2A08002C2A0ED25E0FD120D93C2A1C7
:0E0CCF00120D9C0BBB00010AEB64084A70D7A3
:010CDD0022F4
:020C7B00AD07C3
:100C7D00E4FBFAEAC39408748094805015C2A11263
:100C8D000D9CD2A1EB25E0FB30A0010B120D9C0AAF
:0F0C9D0080E1ED6005120DEC8003120DF6AF0340
:010CAC002225
:100D75008F09A905120DD17FA0120CAD120CE9AF98
:0E0D850009120CDE120DC17F0A7E00020D570E
:020D3300A9070E
:100D3500E4FD120DD17FA0120CDE120DD17FA112A0
:100D45000CAD120CE9E4FF120C7BAD07120DC1AF1F
:010D55000598
:010D5600227A
:100DAB00438920758DFD758BFDD28EC29FD29ED24D
:060DBB00ACD2AFD2992278
:03000000020DE00E
:0C0DE000787FE4F6D8FD758121020B5CE1
:10080000E518240CF8E60518227809300702780C60
:10081000E475F001120C45020BED2000EB7F2ED2A7
:10082000008018EF540F2490D43440D4FF30040BD0
:10083000EF24BFB41A0050032461FFE519600215CC
:1008400019051CE51C7002051B30070D7809E475BD
:10085000F001120C45EF020C33020D0C7403D207A9
:100860008003E4C207F5188B098A0A890BE4F5199D
:10087000F51BF51CE51960077F2012083B80F57514
:100880001AFFC201C200C202C203C205C206C208E8
:10089000120809FF700D3007057F0012084CAF1CCD
:1008A000AE1B22B4255FC2D5C204120809FF24D0B2
:1008B000B40A00501A75F00A781930D50508B6FF49
:1008C0000106C6A426F620D5047002D20380D924DE
:1008D000CFB41A00EF5004C2E5D204020A4CD20190
:1008E00080C6D20080C0D20280BCD2D580BAD205E8
:1008F00080B47F2012083B2002077401B519004024
:10090000F1120800FF12083B020874D208D20680D8
:1009100095120800FB120800FA120800F94A4B7001
:1009200006791D7A0B7BFF20022EE519602A7E00D6
:100930008E82758300120C0660060EEE651A70F04A
:10094000C2D5EBC0E0EAC0E0E9C0E0EE120A93D005
:10095000E0F9D0E0FAD0E0FB120BEDFF60AAEBC0AB
:10096000E0EAC0E0E9C0E012083BD0E02401F9D0A1
:10097000E03400FAD0E0FBE51A0460DCD51AD98037
:10098000877BFF7A0A798FD202809C791080027966
:1009900008C206C2088008D2D5790A8004790AC242
:1009A000D5E51A047002F51AE4FAFDFEFF120800FC
:1009B000FC7B08200113120800FD7B1030000A1296
:1009C0000800FE120800FF7B20EC3382D592D55040
:1009D00013C3E43000069FFFE49EFEE42001039D64
:1009E000FDE49CFCE4CBF8C201EC700CCFCECDCC86
:1009F000E824F8F870F38017C3EF33FFEE33FEED11
:100A000033FDEC33FCEB33FB994002FB0FD8E9EBF1
:100A1000300105F8D0E0C448B201C0E00AEC4D4E08
:100A20004F78207B0070C2EAB51A0040BCC0E012CB
:100A30000A95D0F0D0E0200104C4C0E0C4B201C0E7
:100A4000F0120824D0F0D5F0EB020874120C55090E
:100A50001153098B5808E24C08DE42098F4F099761
:0F0A60004409974908F743099D550981460981C3
:100A6F00450981470B3D5008E62D08EA2E090D2B4D
:100A7F0008EE23090B200B262A08A64800000905BB
:100A8F003F3F3F00790AA2D5200314300509B91062
:100A9F00020404B9080104A2D52006025001042063
:100AAF0002689202B519005034C0E07F203003195C
:100ABF007F30A20272067205500F120AECC202C2F8
:100ACF0006C205C2087F30800F300503E9C0E0126F
:100ADF00083B300503D0E0F9D0E0B519CC3005174D
:100AEF007F30B9100C12083B7F583004077F788095
:100AFF0003B9080312083B3002057F2D02083B7F24
:100B0F00202008F87F2B2006F322920280CF286E38
:100B1F00756C6C2900D2011208003001F8C20178FF
:100B2F001930D50108F60208A62D5043495812086E
:100B3F00002403B405004001E4900B389312082CF5
:0D0B4F00743A12082CD20375190402098BA8
:100BED00BB010689828A83E0225002E722BBFE0206
:090BFD00E32289828A83E4932239
:100C0600BB010CE58229F582E5833AF583E02250A3
:100C160006E92582F8E622BBFE06E92582F8E222ED
:0D0C2600E58229F582E5833AF583E4932207
:100C3300BB010689828A83F0225002F722BBFE01A0
:020C4300F3229A
:100C4500FAE6FB0808E6F925F0F618E6CA3AF622B0
:100C5500D083D082F8E4937012740193700DA3A32E
:100C650093F8740193F5828883E473740293686042
:060C7500EFA3A3A380DF42
:100D0C00EFB40A07740D120D17740A309811A899D4
:100D1C00B8130CC2983098FDA899C298B811F63047
:070D2C0099FDC299F599221F
:00000001FF
