:0409380002080000B1
:0509330012092380FE03
:10092300758901758CFAE4F58AD28CD2A9D2AF22EB
:03000B000208E107
:1008E100C0E0C0F0C0D075D000C000C004C005C0D9
:1008F10006C007758CFA758A000509E509700205BD
:1009010008AE08FF7C037DE812088CED4C7002B242
:10091100A0D007D006D005D004D000D0D0D0F0D0E0
:02092100E032C2
:03000000020800F3
:0C080000787FE4F6D8FD758109020847F6
:10088C00BC000BBE0029EF8DF084FFADF022E4CC50
:10089C00F875F008EF2FFFEE33FEEC33FCEE9DEC19
:1008AC00984005FCEE9DFE0FD5F0E9E4CEFD22ED5F
:1008BC00F8F5F0EE8420D21CFEADF075F008EF2FA9
:1008CC00FFED33FD4007985006D5F0F222C398FD9A
:0508DC000FD5F0EA2237
:10080C00020933E493A3F8E493A34003F68001F2C6
:10081C0008DFF48029E493A3F85407240CC8C333ED
:10082C00C4540F4420C8834004F456800146F6DFBC
:10083C00E4800B0102040810204080900938E47E0B
:10084C00019360BCA3FF543F30E509541FFEE493B1
:10085C00A360010ECF54C025E060A840B8E493A378
:10086C00FAE493A3F8E493A3C8C582C8CAC583CAA3
:10087C00F0A3C8C582C8CAC583CADFE9DEE780BE5B
:01093C0000BA
:00000001FF
